{
  "contractName": "Note",
  "abi": [
    {
      "inputs": [
        {
          "internalType": "string",
          "name": "note",
          "type": "string"
        }
      ],
      "name": "saveNote",
      "outputs": [],
      "stateMutability": "nonpayable",
      "type": "function"
    },
    {
      "inputs": [],
      "name": "getNote",
      "outputs": [
        {
          "internalType": "string",
          "name": "",
          "type": "string"
        }
      ],
      "stateMutability": "view",
      "type": "function",
      "constant": true
    }
  ],
  "bytecode": "0x608060405234801561001057600080fd5b5061034e806100206000396000f3fe608060405234801561001057600080fd5b50600436106100365760003560e01c80635baca0d61461003b578063df3ac47614610050575b600080fd5b61004e6100493660046101ca565b61006e565b005b610058610090565b6040516100659190610274565b60405180910390f35b33600090815260208181526040909120825161008c92840190610131565b5050565b3360009081526020819052604090208054606091906100ae906102c7565b80601f01602080910402602001604051908101604052809291908181526020018280546100da906102c7565b80156101275780601f106100fc57610100808354040283529160200191610127565b820191906000526020600020905b81548152906001019060200180831161010a57829003601f168201915b5050505050905090565b82805461013d906102c7565b90600052602060002090601f01602090048101928261015f57600085556101a5565b82601f1061017857805160ff19168380011785556101a5565b828001600101855582156101a5579182015b828111156101a557825182559160200191906001019061018a565b506101b19291506101b5565b5090565b5b808211156101b157600081556001016101b6565b6000602082840312156101db578081fd5b813567ffffffffffffffff808211156101f2578283fd5b818401915084601f830112610205578283fd5b81358181111561021757610217610302565b604051601f8201601f19908116603f0116810190838211818310171561023f5761023f610302565b81604052828152876020848701011115610257578586fd5b826020860160208301379182016020019490945295945050505050565b6000602080835283518082850152825b818110156102a057858101830151858201604001528201610284565b818111156102b15783604083870101525b50601f01601f1916929092016040019392505050565b600181811c908216806102db57607f821691505b602082108114156102fc57634e487b7160e01b600052602260045260246000fd5b50919050565b634e487b7160e01b600052604160045260246000fdfea26469706673582212208006c74913e46b25a77223c3aa9564cc962914f7376bd3cc9521dd0d1d105fd964736f6c63430008040033",
  "immutableReferences": {},
  "source": "// SPDX-License-Identifier: MIT\r\npragma solidity >=0.7.0 <0.9.0;\r\n\r\ncontract Note {\r\n    mapping(address => string) private notes;\r\n\r\n    function saveNote(string memory note) public {\r\n        notes[msg.sender] = note;\r\n    }\r\n\r\n    function getNote() public view returns (string memory) {\r\n        return notes[msg.sender];\r\n    }\r\n}\r\n",
  "sourcePath": "H:\\WEB_3\\code\\demo Dapp\\truffle_folder\\contracts\\Note.sol",
  "compiler": {
    "name": "solc",
    "version": "0.8.4+commit.c7e474f2.Emscripten.clang"
  },
  "schemaVersion": "3.4.10",
  "updatedAt": "2023-04-26T15:24:52.444Z",
  "networkType": "ethereum",
  "devdoc": {
    "kind": "dev",
    "methods": {},
    "version": 1
  },
  "userdoc": {
    "kind": "user",
    "methods": {},
    "version": 1
  }
}